:100000006F00904A1300000013000000130000006E
:100010001300000013000000130000001300000094
:100020001300000013000000130000001300000084
:08003000130000007300100032
:100038000000000000000000080300000C0300009E
:1000480000000000EE0B00000000000000000000AF
:10005800F00B0000F20B00000000000000000000A0
:10006800F40B000000000000F60B00000000000088
:10007800F80B0000FA0B0000FC0B0000FE0B000060
:10008800000C0000020C0000040C0000060C00002C
:10009800080C00000A0C00000C0C00000E0C0000FC
:1000A800100C0000120C0000140C0000160C0000CC
:1000B800180C00001A0C00001C0C00001E0C00009C
:1000C800200C0000220C0000240C0000260C00006C
:1000D800280C00002A0C00002C0C00000E03000065
:1000E800300C0000320C0000340C0000360C00000C
:1000F800380C00003A0C00003C0C00003E0C0000DC
:10010800400C0000420C0000440C0000460C0000AB
:10011800480C00004A0C00004C0C00004E0C00007B
:10012800500C0000520C0000540C0000560C00004B
:10013800580C00005A0C00005C0C00005E0C00001B
:10014800600C0000620C0000640C0000660C0000EB
:10015800680C00006A0C00006C0C00006E0C0000BB
:10016800700C0000720C0000740C0000760C00008B
:10017800780C00007A0C00007C0C00007E0C00005B
:10018800800C0000820C0000840C0000860C00002B
:10019800880C00008A0C00008C0C00008E0C0000FB
:1001A800900C0000920C0000940C0000960C0000CB
:1001B800980C00009A0C00009C0C00009E0C00009B
:1001C800A00C0000A20C0000A40C0000A60C00006B
:1001D8000000000000000000000000000000000017
:1001E8000000000000000000000000000000000007
:0801F8000000000000000000FF
:10020000397101436EC619A0397141536AC866CA73
:1002100062CC5ECE19A0397101535AD056D252D455
:100220004ED64AD826DA22DC06DE330161408282CD
:1002300041114AC026C222C406C68282B24D410183
:10024000024D924C224CB24B4101024B924A224A3F
:10025000B2494101024992442244B24041018280A4
:100260003D432A876373C3029377F700BDEFADE583
:10027000937606FF3D8ABA960CC34CC30CC74CC795
:100280004107E36BD7FE11E28280B306C3408A06C2
:100290009702000096966780A6002307B700A30682
:1002A000B7002306B700A305B7002305B700A304D2
:1002B000B7002304B700A303B7002303B700A302CA
:1002C000B7002302B700A301B7002301B700A300C2
:1002D000B7002300B700828093F5F50F9396850051
:1002E000D58D93960501D58D61B79396270097021A
:1002F000000096968682E78086FA9680C1171D8F49
:100300003E96E374C3F8A5B77300203001A04111F5
:1003100022C6373401408945130504C0EF108045DB
:1003200011C58145130504C0EF10A03B37340140CF
:100330009145130504C0EF10E04301CD130504C03F
:10034000EF10004323A4A1848145130504C0EF10DE
:100350004039373501409945130505C0EF1000437A
:100360003244410173002030EFF29FECAE842A84C6
:10037000374900000306040026850504890401E6C8
:1003800023000500C1BD930549E9EF208046DDB794
:10039000EFF21FEA7971854513050004EF10E00BB9
:1003A000372401400D49C144C1476C001305048046
:1003B0007C864AC826CAEF00B058A1472C0813050E
:1003C0000480FC844ACE26D0EF00905791474C1011
:1003D000130504802312F1024AD426D6EF005056AA
:1003E00045618DBDEFF2DFE437150140C1451305CE
:1003F0000580EF0030613724014013050480A145DA
:10040000EF005060914513050480EF00B05F99B58F
:10041000EFF21FE237150140C14513050580EF00DB
:10042000305E3724014013050480A145EF00905D44
:10043000914513050480EF00F05C29BDEFF25FDF0A
:1004400037150140C14513050580EF00B05B372427
:10045000014013050480A145EF00905A9145130512
:100460000480EF00305AFDB3EFF29FDC37150140F6
:10047000C14513050580EF00B0583724014013052E
:100480000480A145EF00D057914513050480EF008B
:100490003057C9B3EFF2DFD90111854537050400A4
:1004A00002C202C402C602C802CA02CC02CEEF00D7
:1004B000B07C85452145EF00507A930700407C824F
:1004C000371401408D473EC44C00E147130504C07A
:1004D0003EC6EF00F0468567938707807C824C001C
:1004E0009147130504C03EC6EF009045F1673754AD
:1004F0000040938707203EC80C08B7070C0013057F
:1005000004803ECCB704024002CA231E0100EF1053
:10051000A0281385C4018545EF00303E13850403F0
:100520008545EF00903D854513050480EF1080322E
:1005300005610DB3EFF2DFCF79711306C00281457B
:100540004800393B85450545EF00506F37040240B0
:100550001305C401EF003020B70700209387070080
:10056000B75400404C00938444803EC41309F00209
:10057000C1471305C4013EC626C24AC8EF00703405
:1005800013050403EF00301D938781964C0013057B
:10059000040326C23EC44AC802C6EF009032456139
:1005A00055B9EFF25FC71D711306000281450810AF
:1005B000453913060002814588005D3185451145A6
:1005C00002C402C602C802CA02CC02CEEF00F06822
:1005D000854513050020EF0050683165EF00904D10
:1005E000371401408947130504802C007C8402C81D
:1005F000EF0010354C08130504808549372401406D
:10060000231A310102CEEF00B03313050440EF008E
:100610004072B7040E000C1005491305044026D69D
:1006200002D002D24AD402D8230A3103EF00607408
:1006300013050440EF00E06F8C0013050440A6C6CC
:1006400082C082C2CAC482C8230A0104EF00607259
:10065000854513050440EF002078854513050440C7
:10066000EF008076814513050440EF00407A1305C2
:100670000440EF008077930404402685EF008077E4
:100680006DFD1305044037240140EF0020779304EB
:1006900004402685EF0020776DFD13050440EF0030
:1006A00080782396A184854513050440EF002076C9
:1006B000256161BEEFF2DFB72A8905657971AE84E5
:1006C00013054580854502D202D402D602C602C86F
:1006D000231A010002CC02CE2310010202C202C47E
:1006E000EF00B05737140140930700102312F102B6
:1006F0004C109147130504803ED6EF00702413057B
:10070000048093050010EF00F02F373401402C08CF
:10071000130504C0231E2101E484231F0100231DAF
:10072000010023000102EF00B06A6C00854413054C
:1007300004C026C802C6231A0100EF00D07D93072B
:10074000B02248007C8226C423030100EF00302C35
:100750000546130504C09945EF00B073130504C0A6
:1007600093050005EF001074130504C09145EF00D8
:100770007074130504C093050008EF0010758545DB
:10078000130504C0EF00706F4561E9B4EFF2BFA834
:100790009389018A37A94A049384018A138A09023A
:1007A0001384018A130909205145EF10A01083A773
:1007B00081849104B357F90223AEF4FEE3169AFE46
:1007C0002147CE8781469043CC43850663F4C5001C
:1007D0008CC3D0C39107E3E8E6FE7D177DF35C444C
:1007E00008443E951C483E955C483E95098123AEE1
:1007F000A184A1BCEFF2DFA079710945EF00D02000
:10080000413EEF10C008713B716513050520EF10E4
:10081000C00D83A5418337450000130505D9EF10AE
:100820007079093B85393755004005469305000C22
:1008300013050580EF10600313050002EF00300D73
:1008400065DD3745000093858196130505DAEF10C5
:1008500070764165930570047D15A93D8395C1842B
:1008600037450000130505DBEF10D0743709002071
:10087000953E1305007DEF10E003093F138D818144
:1008800003270D00938D0186938CC18123A0AD00B9
:1008900023A8A1842AD403A50C00BA853AD0EF106E
:1008A000F01A0324890B2ACC03A541803305A44008
:1008B000EF105052E246AA853685EF100045A25748
:1008C00023AAA1862ACC3305F440EF10B050E245AC
:1008D000EF10C06E0257BA85EF10800C93868186A8
:1008E00088C23D361305007DEF00D07C453523AA34
:1008F000A18403270D0023A0AD002AD403A50C007A
:10090000BA8503A481803AD0EF1050142ACC03A5F5
:10091000C1803305A440EF10F04BE246AA8536852E
:10092000EF10A03EA25723ACA1862ACC3305F44099
:10093000EF10504AE245EF1060680257BA85EF1099
:10094000200623A6A186DD3C1305007DEF009076EE
:10095000353D032D0D002A8423A0AD0023ACA184D6
:1009600003A50C00EA8583AD0181EF10300EAA8C3F
:1009700003A541813385AD40EF10D045AA8566853A
:10098000EF10A03823AEA1862ACC33858D40EF101E
:100990007044E245EF108062EA85EF10600023A802
:1009A000A186D93437450000130585DCEF1090602F
:1009B0001305007DEF00107037450000130585DD3D
:1009C000EF10505F1305007DEF00D06E374500003B
:1009D000130545E0EF10105E1305007DEF00906DEC
:1009E00083A7C1828843EF10504B83A781822AD40A
:1009F0002ED68843EF10704A83A641822AD02ED289
:100A00008842EF1090492ECE83A501822ACC8841DE
:100A1000EF10B0482EC683A501832AC48841EF1089
:100A2000D0472258B2580257F246925762462EC219
:100A3000B74500002AC0938585E313858199EF109F
:100A4000505BB745000013868199938545E5138572
:100A5000C19FEF10105A1385C19FEF10D05DB745AD
:100A600000002A8623A2A188938545E6138501A666
:100A7000EF1030581385C19FEF10F05B23A4A188BD
:100A8000938541AC1385C19FEFF01F8E3706002080
:100A9000B7450000138741AC938601A613060603F1
:100AA000938585E6138581B2EF10B054138581B22A
:100AB000EF107058B74500002A8623A6A1889386B8
:100AC00081B2938505E71385C1B8EF1090521305E5
:100AD000007DEF00305E374500009385C1B81305F7
:100AE000C5E8EF10304D1305007DEF00B05C49B351
:100AF000B71702409843B706FFF841111367170074
:100B000098C3D84337060200758FD8C39843B706F9
:100B1000F7FEFD16758F98C39843B706FCFFFD16C8
:100B2000758F98C3D843B70681FFFD16758FD8C35C
:100B30009843B70600ECFD16758F98C33707FF0082
:100B400098C723A6070202C402C69843C166558F00
:100B500098C3B716024005679C42F18F3EC6A24774
:100B600085073EC4B24781E7A247E397E7FEB71780
:100B700002409C431397E7006357070685473EC62C
:100B800032478547631FF704B7170240D843B706BB
:100B9000C1FFFD16D8C3D843D8C3D8431367074055
:100BA000D8C3D843758FD8C3D843B7061D00558F17
:100BB000D8C39843B7060001558F98C3984393163E
:100BC0006700E3DD06FED843B7160240719BD8C329
:100BD000D84313672700D8C32147DC42B18BE39E7B
:100BE000E7FE4101828002C661BF01A001A001A011
:100BF00001A001A001A001A001A001A001A001A0ED
:100C000001A001A001A001A001A001A001A001A0DC
:100C100001A001A001A001A001A001A001A001A0CC
:100C200001A001A001A001A001A001A001A001A0BC
:100C300001A001A001A001A001A001A001A001A0AC
:100C400001A001A001A001A001A001A001A001A09C
:100C500001A001A001A001A001A001A001A001A08C
:100C600001A001A001A001A001A001A001A001A07C
:100C700001A001A001A001A001A001A001A001A06C
:100C800001A001A001A001A001A001A001A001A05C
:100C900001A001A001A001A001A001A001A001A04C
:100CA00001A001A001A001A097010020938101C132
:100CB0001771002013010135173500001305054495
:100CC00097F5FF1F938505341386818463FAC50069
:100CD0008322050023A0550011059105E3EAC5FE16
:100CE00013858184938541BF6377B5002320050078
:100CF0001105E36DB5FEFD42739002BCAD427390E9
:100D00004280B76200009382820873A0023097F29B
:100D1000FFFF9382A23293E2320073905230EFF0E1
:100D20003FDD97020000938222AD7390123473006E
:100D30002030EFF2EFCFB727014093870740631CC5
:100D4000F500854513050020B927814513050020CE
:100D500099276FF02FD0B737014093870780E31AA8
:100D6000F5FE8545130500403D27814513050040EC
:100D7000C5B75C413707F1E01307F7EF944D7D8F5E
:100D80009C41D58FD44DD58FD441A206D58FD98F14
:100D90005CC11C4537F7F1FF1307D77FD4457D8F22
:100DA0009C49D58F94458606D58FD98F1CC55C5537
:100DB000370710FF7D177D8FDC29FD1793F7F70F9D
:100DC000D207D98F5CD582801C4589C593E717006F
:100DD0001CC58280F99BEDBF1C4589C593E70710B0
:100DE0001CC5828093F7F7EFE5BF1C4593E78700AA
:100DF0001CC5828008450D81058982801C4593E7CA
:100E000047001CC5828008450981058982805C41B4
:100E100091C537070004D98F5CC18280370700FC79
:100E20007D17F98FD5BFEFF2AFC001112A842304DB
:100E30000100A5441C8463F9F40423040100A546C1
:100E400021461C8463FDF6062315010023040100DE
:100E500095461C8463FFF60C38853C8599460D4603
:100E6000B3F7D702056513050580B3D7C70233571B
:100E7000D702BA97C207C1837C853C8505611D8D69
:100E8000420541856FF00FBD1C4493E787001CC4E9
:100E900022858D3775FD1C4493E747001CC42285CD
:100EA0009D3775FD78441C8414108607B6972396E9
:100EB000E7FE1C84850793F7F70F5C84A5BFA304A6
:100EC00001009C846378F6001C84850793F7F70F74
:100ED0005C8485BF98849C840C1006078507860770
:100EE0002E97AE970357C7FE83D7C7FE63FDE70271
:100EF0009C848607AE9783D7C7FE7C859C849884A4
:100F000085078607AE9783D5C7FE9317170018107D
:100F1000BA972396B7FE9C8438850C108507860700
:100F2000AE972396E7FE9C84850793F7F70FDC8442
:100F300049BF1C841010388589078607B29783D76C
:100F4000C7FEBA97C207C1837C851C84850793F7C7
:100F5000F70F5C84FDBD1C4141677917F98F1CC1F7
:100F6000232005002322050023240500B7070240A3
:100F700023260500138787006317E500D84313670E
:100F8000F700D8C382801387C7016316E500D843F2
:100F90001367070FFDB7138707036318E500D843EE
:100FA0008566938606F0558FE9BF1387470463155E
:100FB000E500D843BD66C5BF138787056316E50006
:100FC000D843B7060F00C5B71387C7066316E500F9
:100FD000D843B706F000C1BF138707086316E500C2
:100FE000D843B706000FC1B7138787406319E500E0
:100FF00003A747401367F70023A2E74082801387C7
:10100000C7416317E50003A747401367070FEDB714
:1010100093870743631BF500B707024003A74740C8
:101020008566938606F0558FC1BFB70702401387C8
:1010300047446316E50003A74740BD66EDB7138735
:1010400087456317E50003A74740B7060F00E1BFD8
:101050001387C7466317E50003A74740B706F000AC
:10106000D9B7138707486317E50003A74740B706BA
:10107000000F55BF138707496319E50003A7474DC4
:101080001367F70023AAE74C82801387074A631788
:10109000E50003A7474D1367070FEDB71387074B0D
:1010A0006319E50003A7474D8566938606F0558FC3
:1010B000D1BF1387074CE319E5FC03A7474DBD6675
:1010C000FDB71C4161773D0794517D8F9C45D58FBD
:1010D0009449D58FD449D58F944DD58FD44DD58F84
:1010E000D451D58F9455D58FD98F1CC1DC455CC1A7
:1010F0009C411CC5DC415CC582801C4189C593E7CD
:1011000017001CC1828041677917F98FDDBF9317E3
:10111000350063DA0700B707024083A707407D8DDB
:101120003335A00082809317250063D70700B707E7
:10113000024083A7074DE5B7B70702409C43C5B7F8
:101140009C4513F7070113F8F70001C7D84133682E
:10115000E8008E2113F7F50F39C318418146854EFB
:101160003D4F930F800293028004214E3396DE00A0
:10117000B3F8C500631116039398260033131F01BB
:101180001343F3FF3377E300B318180133E7E800A4
:10119000639FF70550C98506E39AC6FD18C113077A
:1011A000F00F6375B70454412146854E3D4F930FB0
:1011B000800293028004414EB398CE0033F71501AC
:1011C0006392E8021317260001173313EF0013434D
:1011D000F3FFB376D3003317E800D98E639DF70190
:1011E000232A15010506E319C6FD54C18280E39444
:1011F00057FA10C94DB7E39757FE23281501DDB7FD
:101200000CC982804CC9828023A8A18882809387E0
:1012100001899443182181E63C21920721A8944337
:101220000546639FC6023C21103192076314D60025
:1012300093E707F8B7E600E093F7F70FBA96238035
:10124000F6408546935757003397E6005441A5C2B0
:10125000938707048A07B7E600E0B69798C38280B1
:101260008C4389466391D50214313C216365D600D5
:101270008A06B6975DB79386E6038A06B69793F714
:10128000F70F920775B790438D46631CD600143153
:101290003C216364D6008606E9BF9386C6078606AE
:1012A000F1BF94439147E39EF6F81C31BDB7938795
:1012B00007064DB7B7160240DC4251777D17F98F0C
:1012C0005D8DC8C28280371702405C439146B18B66
:1012D0006385D700A1466382D706B7177A00938744
:1012E00007201CC1371602405C4237070020130755
:1012F00047049183BD8BBA9794231C41B3D7D70081
:101300005CC15442A1829D8ABA969422B3D6D7007A
:1013100014C55442AD829D8A36971823B3D7E7008F
:101320005CC558423983937637001387818336979B
:101330001823B3D7E7021CC982805C435843C166B7
:10134000C983758FB7F6FF1F83A6C670BD8B89074B
:101350001396160163480600C54601466392D702FC
:10136000C94739A88946638FD702BD46638ED70225
:10137000C146638ED702C54601466393D700C14775
:101380001DEF3747024003270780418B05C73717FA
:101390007A0013070720B307F7021CC121D61C41AE
:1013A000858381B701466DBF0546B547D1BF01466C
:1013B000BD47F9B737173D0013070790E9BFB715C9
:1013C0000240D8559316F700D85563DF0604118301
:1013D0003D8B9306170037177A0013070720335702
:1013E000D70218C1D455A182BD8A8DE29546330734
:1013F000D702058318C137170240585714413D8B57
:10140000050733D7E60218C1184171B785456394C3
:10141000B600E546E9BFBD456396B600D1463387C1
:10142000E602C9BF8906E5BF3D8B93061700371753
:101430007A00130707203357D702F1B799C537173A
:1014400002405C4B5D8D48CB8280B7170240D84B81
:101450001345F5FF798DC8CB828099C537170240B7
:101460001C4F5D8D08CF8280B7170240984F1345FF
:10147000F5FF798D88CF828099C5371702405C4F80
:101480005D8D48CF8280B7170240D84F1345F5FFD6
:10149000798DC8CF828099C5371702405C475D8D32
:1014A00048C78280B7170240D8471345F5FF798DAA
:1014B000C8C782801E319206558EC207C183F99B30
:1014C000C207C1831EB11A2D1E31B7360140420733
:1014D00041831377C7F0518FC2074207138606C0B6
:1014E000C18341836300C50437060040630CC50215
:1014F000130606406308C50237160040130806802D
:1015000063020503130606C0630EC50093860640FA
:10151000630AD500B7560140138606C06304C500B0
:101520006319D500F59BCD8F93E717001AAD1EB157
:101530008280D59BCDBF1E312206B206C207C18371
:10154000BD9BC207C1831EB18358850185671A31CF
:101550009387F7CFD18EB3F71701D58F1398450036
:10156000B736014042074208C207138606C04183CE
:1015700013580801C1836300C50437060040630C9B
:10158000C502130606406308C502371600409308DB
:10159000068063021503130606C0630EC50093861A
:1015A0000640630AD500B7560140138606C063049F
:1015B000C500631BD5001377F7FD3367E800136799
:1015C00007011EAD1AB182801377F7F54D8FC5BFA5
:1015D0001E2137370140930607C0C207C18363004D
:1015E000D504B7060040630CD50293860640630815
:1015F000D502B7160040138606806302C5029386A3
:1016000006C0630ED50013070740630AE50037578D
:101610000140930607C06304D5006316E500BA21B4
:1016200093F7F7F8D98F37170040630CE5001307DD
:1016300007406308E50093F7F7CFFA21C207C1839B
:10164000D98F1EA1DE215EB59E211EB5B7370140A0
:10165000138707C0630EE50093870740630AF50010
:10166000B7570140138707C06304E5006314F50012
:101670009C251EB985475EA982801E2189C593E7F6
:1016800017001EA18280C207C183F99BC207C183D4
:10169000CDBF5E2501C6DD8D4EA5828093C5F5FFC9
:1016A000FD8DDDBF1E25C207C18393F7F7F8DD8DE1
:1016B0000EA582801E25C207C183E19BC207C1839C
:1016C0001EA51E25DD8D0EA582801E25C207C183A5
:1016D00093F7F7F7C207C1831EA51E25DD8D0EA562
:1016E00082804EB182801E2DC207C183CD9BC2076E
:1016F000C1831EAD1E2DDD8D0EAD82801A2DFD77AE
:101700009387F73FF98F1EAD1E2DA205DD8DC20513
:10171000C1810EAD8280EFE21FB02E84AE21522037
:10172000854713B91500AA84060985496313F60095
:1017300089491E201624268599EFAD3B6E2026850B
:101740005D371624CA8526854E86F5336E2026859C
:1017500075376FE09FAFC5336E2026854537162459
:10176000CA8526854E86B9336E202685AD3FD5B70E
:101770000A3D82801E294A25ED8F4205418189C795
:101780006D8D3335A00082800145828093C5F5FFC1
:10179000C205C1810EA98280EFE29FA91629F577C3
:1017A000FD17F58FF621DA257971D58F1EA95625FB
:1017B000FD779387379FF58FD6212A842EC6D58F44
:1017C0009625D58FB625D58F5EA55E29C207C18324
:1017D00093F7F7CFD98F5EA96808EFF0DFAEB74770
:1017E000014093870780B245631AF404A257562438
:1017F0006547B387E702C206C186984163D20604F3
:10180000060752244206B3D7E70213074006418673
:10181000B3D6E702B3F7E7029206635506028E07D6
:1018200093872703B3D7E70213F77700B367D7008F
:10183000C207C1831EA445616FE0DFA1925745BF77
:101840000A07C1B7920793872703B3D7E702BD8B77
:10185000D58FF9BF91C55E250967D98F5EA58280B6
:101860005A25F977FD17F98FD5BF5E2901C6DD8DA1
:101870004EA9828093C5F5FFFD8DDDBF93F5F51F61
:101880004EA182800A216D8D3335A000828083A70E
:10189000418337177A0013070720B3D7E70293F77E
:1018A000F70F238BF1881307803EB387E702239A53
:1018B000F1888280B7F700E0D8438146799BD8C38E
:1018C00003D741893306A70290CBD4CB9843136743
:1018D000070198C398431367170298C3D843058B31
:1018E00075DF9843799B98C38280EFE27F942A84C6
:1018F0001165011185451105EFF03FB693070020F2
:101900007C82371501408D473EC44C00E1471305EA
:1019100005803EC6EFF0DF8222C837440140B7079A
:1019200008000C08130504803ECC02CA231E0100E7
:10193000A535854513050480313F05616FE09F9112
:10194000EFE27F8DB7440140AE8932890144938430
:101950000480634524014A856FE03F8F93050004AE
:1019600026850D3765DDB3878900838507002685C9
:101970000504C205C1811937E9BF1387C1831C4320
:10198000938641BF3E95636BD500B7860020938652
:10199000068063E5A60008C33E858280FD57EDBF43
:1019A0004111370780007D1713D8750126C2935463
:1019B00075013373A70093F4F40FB376B7004AC0F0
:1019C0001378F80F1359F50106C622C4FD819A87D2
:1019D00026854A86131E3300939E3600B388044141
:1019E000630AB90E6350100D630408149307F00FD7
:1019F000638BF414B7070004B3EEFE00ED4763C138
:101A0000172993070002B3871741B397FE00B3D895
:101A10001E01B337F000B3E7F800B307FE40139799
:101A20005700635E0718370400047D147D8C2285FF
:101A3000EF0070516D15B317A4006348951A058D1A
:101A40001304150013070002018F3397E7003337A3
:101A5000E000B3D78700D98F814413F7770019C707
:101A600013F7F70091466303D700910713975700C8
:101A7000635B071485041307F00F4A866383E4163B
:101A80009A07A58313F5F40FB2402244A6079314D6
:101A9000750113D59700458D7E0692440249518DFC
:101AA000410182806399080A138714001377E70FB6
:101AB0006317071463900422630D0E1EE3860EFC69
:101AC000B307DE411397570063500722B387CE4117
:101AD0002E8961B7635C100B630E08089307F00F43
:101AE0006383F406B7070004B3EEFE00ED4763C955
:101AF000171F93070002B3871741B397FE00B3D8AF
:101B00001E01B337F000B3E7F800F29713975700C0
:101B10006357070A85041307F00F6384E40CB706C4
:101B2000007E13D71700FD16858B758FD98F35B7BB
:101B3000638D0E08FD18B307DE41E38208EE9307BC
:101B4000F00FE39DF4EA630D030801461305F00F5F
:101B5000B707400015BF33079840EDE863020E1445
:101B60007D17630807189307F00F6319F80E2E8985
:101B70003683D1BF638B0E04FD18B307DE01E38704
:101B800008F89307F00FE393F4F675BF6395080820
:101B9000850413F7E40F6313071263170510630F2F
:101BA0000E14E3830EEEB307DE0113975700814452
:101BB00063570700370700FC7D17F98F854413F73B
:101BC0007700E31F07E813D337009307F00FE38C88
:101BD000F4F693179300A58313F5F40F4A866DB5B9
:101BE0004A861305F00F814745B5370700FC7D177E
:101BF000F98F13F77700898CE31407E6E9B733040C
:101C0000DE419317540063C3070CE31204E201465C
:101C10000145814795BD33079840ADC49307F00F48
:101C2000E308F8F4B7070004336EFE00ED4763CC19
:101C3000E70C93070002998FB317FE003357EE00AD
:101C4000B337F000D98FF697C284C9B59307F00F68
:101C5000E30FF8F0B7070004336EFE00ED4763C3EF
:101C6000E70893060002998EB316DE00B357EE0024
:101C70003337D000D98FB387FE40C2842E8945B355
:101C8000854761BB630E0E067D17B307DE01C28474
:101C9000E30E07E69307F00FE31AF8F8368365B50D
:101CA0003683C2842E8915B7E3040EECE38D0EE86B
:101CB00069BD638D0E022E86B687F9B39307F00FC8
:101CC000E381F4F2B307DE018583D5BD3384CE41D1
:101CD0002E89B1BBE31C0EFCE3890EE62E8949BDBB
:101CE000854725B5854741BFE39B07EC0146814702
:101CF00061BBB387CE41C2842E8915B3B68769B361
:101D00003683C284D9B585473DBF39719357750174
:101D10004AD856D25ECE931A95001359F50106DEC5
:101D200022DC26DA4ED652D45AD093F7F70F93DA44
:101D30009A00CA8B638207121307F00F6384E712BD
:101D40008E0A37070004B3EAEA00138A17F8014441
:101D5000014B93D775019394950093F7F70FA580E6
:101D600093D9F501FDC71307F00F6387E7028E04CF
:101D7000938717F837070004D98C330AFA40814655
:101D8000558C172700001307A7110A043A941C402A
:101D900033493901BA978287130A1AF0F9E889465C
:101DA000558C172700001307A7130A043A941C4008
:101DB00033493901BA97828701491307F00FB707F2
:101DC000400013959700F2506254931777012581D4
:101DD0007E095D8D33652501D2544259B259225A8C
:101DE000925A025BF24B216182801307F00F814708
:101DF000C9BFA68ACE8B368B8947630BFB1A8D47EA
:101E0000E30CFBFA8547630AFB0A1307FA0713F989
:101E10001B006357E01293F77A0099C793F7FA0013
:101E200091466383D700910A93974A0063D90700CC
:101E3000B70700F8FD17B3FAFA0013070A0893076B
:101E4000E00FE3C4E7FA93976A00A5831377F70FCF
:101E50008DBFB9E48546A9B763940A021144014ACB
:101E6000054BC5BD63990A002144130AF00F094BC5
:101E7000CDB58D4631B73144130AF00F0D4BD1BDAE
:101E800056852EC6EF00300C9307B5FFB39AFA00C3
:101E90009307A0F8338AA7400144014BB24555BDD2
:101EA0002685EF00500A1307B5FFB307AA00B394C5
:101EB000E400138A67078146E1B513F91B00014767
:101EC000814701B74166139554007D16935705016C
:101ED000698E63FA9A0AB3D5FA027D1AD68601474B
:101EE0003388C502B3F6F602C206558F637B07013D
:101EF0002A979386F5FF6368A70A6376070BF9159F
:101F00002A9733070741B356F7023377F702B38AAC
:101F1000C6029317070163FB5701AA971387F6FFC1
:101F200063E1A70863FF5707F916AA97C205B38AAA
:101F30005741D58DB33A5001B3EA5501CA8BF1B57B
:101F40008546998E11C76D4601478147E34BD6E61A
:101F5000130AEA09339A4A01B3D7DA00B33A4001C7
:101F6000B3E7570113F7770019C713F7F700914646
:101F70006303D700910713975700634807029A0736
:101F8000A58301473DBD93D61A00B3D5F60213973A
:101F9000FA0141833388C502B1B7CE8B368B814AB3
:101FA000A1BDBA8661B7B685A9BF0547814711BDF6
:101FB00013F91B001307F00F814721B5797122D463
:101FC000135475014ECE52CC9319950006D626D2E5
:101FD0004AD056CA5AC81374F40F93D99900135AA9
:101FE000F50169C49307F00F6308F40E9397390065
:101FF00037070004B3E9E700130414F88144014BE8
:1020000013D77501939A95001377F70F93DA9A0017
:1020100013D9F50145CF9307F00F630CF7028E0A31
:10202000130717F8B7070004B3EAFA003A94014619
:1020300033452A01BD47AA869305140063E0971033
:10204000172700001307C7ED8A04BA949C40BA977B
:1020500082871304F40F63960A0C93E42400094664
:10206000C1BF01451307F00FB7074000B25022541B
:10207000A6075E07A5837E05D98F92540259F249BF
:10208000624AD24A424B5D8D45618280CA86D689BA
:10209000328B8947630FFB088D47E304FBFC8547C0
:1020A00036856310FB1A01478147C9B7639D090450
:1020B00013D77501939A95001377F70F9144014454
:1020C000054B93DA9A0013D9F50131F7639D0A00A5
:1020D00093E414000546A9BF63920902A1441304C6
:1020E000F00F094B31BF5685B92D9307B5FF098C09
:1020F000B39AFA001304A4F801461DBFB1441304B7
:10210000F00F0D4BF5BD4E852EC6352D9307B5FF4F
:102110001304A0F8B399F900098C8144014BB2452E
:10212000C5B593E434000D4621B78947D286E3153F
:10213000FBF636851307F00F81470DBF4163930609
:10214000F3FF13D6090193D80A01B3F7D900B3FA04
:10215000DA0033885703B389F80213570801B30A2A
:102160005603D6994E9733061603637357011A9692
:10217000C167FD17B376F7003378F800C206C29640
:102180009399660093570701B3393001E982B297FA
:102190009A07B3E6D900B3E9D7009397490063D90A
:1021A000070013D7190093F71900B369F7002E84BD
:1021B0001307F4076350E00493F7790099C793F786
:1021C000F90091466383D70091099397490063D939
:1021D0000700B70700F8FD17B3F9F9001307040863
:1021E0009307E00F63CBE70493976900A583137708
:1021F000F70FADBD8547B386E74011C76D46014770
:102200008147E345D6E61307E4093397E9003337FE
:10221000E000B3D7D900D98F13F7770019C713F7A8
:10222000F70091466303D700910713975700634C5B
:1022300007009A07A583014715BD1307F00F8147D3
:1022400035B52E84B5B7054781470DB537078000F2
:1022500041117D179356750113D87501B377A70007
:1022600093F6F60F935EF5013376B70026C24AC0A7
:102270001378F80F06C622C41303F00F3E8E36897A
:10228000F684139F3700FD8113153600B38806418D
:102290006302681093C51500638CBE106354100D63
:1022A000631008106304051EFD18B307AF40638672
:1022B00008029307F00F6388F616ED4763C71729E6
:1022C00013070002330717413317E500B357150111
:1022D0003337E000D98FB307FF401397570063519E
:1022E000071A370400047D147D8C2285A9296D15F9
:1022F000B317A400634E251B3305254113041500B5
:1023000013070002018F3397E7003337E000B3D79C
:102310008700D98F014913F7770019C713F7F70022
:1023200091466303D700910713975700635E071424
:10233000930619001307F00F93FE14006386E61648
:102340009A07A58393F6F60FA607B240224413D549
:102350009700DE069397FE01558D924402495D8DEC
:10236000410182806392080A138716001377E70FF2
:10237000631B07146394062263020F2071D5B30711
:10238000AF401397570063550722B307E541014952
:10239000AE8451B7E30005F0638ABE0AE35410FD32
:1023A0009307F00F6381F608B70700045D8D31B71E
:1023B000635E1009630108089307F00F6385F60652
:1023C000B70700045D8DED4763C0171F13070002B8
:1023D000330717413317E500B35715013337E000D2
:1023E000D98FFA9713975700635C070805091307FD
:1023F000F00F630BE90AB706007E13D71700FD162E
:10240000858B758FD98F01BF3307D8406395061030
:10241000630D0F147D176303071A9307F00F6314FE
:10242000F810AE84328E630F0E06814E9306F00FC5
:10243000B707400011BF39C9FD18B307AF00E383E8
:1024400008FA9307F00FE390F6F8F1BF63990808D4
:10245000138916001377E90F63160712639B0610A2
:1024600063030F16E30205EEB307AF00139757009F
:10247000014963570700370700FC7D17F98F0549AD
:1024800013F77700E31C07E813DE37009307F00F1C
:10249000E30BF9F893179E00A5839376F90F93FE4B
:1024A00014005DB593FE14009306F00F814769BDDB
:1024B000370700FC7D17F98F13F777003309A94020
:1024C000E31E07E4D1B73304AF409317540063C34E
:1024D000070CE31C04E0814E81468147B5B5330704
:1024E000D840B5C69307F00FE30EF8F2B707000423
:1024F000336FFF00ED4763CDE70C93070002998F20
:10250000B317FF003357EF00B337F0005D8FB30709
:10251000A7004289C1BD9307F00FE304F8F0B707A5
:102520000004336FFF00ED4763C2E7089307000222
:10253000998FB317FF003357EF00B337F000D98FEF
:10254000B307F5404289AE8449BB854769B3630E42
:102550000F067D17B307AF004289E30507E893072D
:10256000F00FE319F8F8328E7DBD328E4289AE84C9
:1025700031BFE3090FEAE30805EA45BD0DCDAE8E94
:10258000B287D9B39307F00FE300F9F2B307AF00B6
:102590008583FDB53304E541AE8481BBE31D0FFCAB
:1025A000E30505E8AE84BDBD854725BD854749BF28
:1025B0000149E39707EC814E814779B3B307E541C1
:1025C0004289AE8419BBB28741B3328E42897DBD48
:1025D000054735BF411106C622C426C20DCD93570B
:1025E000F54133C4A7001D8CAA842285A92A93072C
:1025F000E0093387A74093076009FD8063CCE702B9
:10260000A1469377F70F63D5A60061153314A40094
:102610002604258021A081448147014426041355C6
:102620009400B2402244DE07FE045D8D458D924445
:10263000410182809307900963DDE7009307B501AC
:102640009546B317F400898E3354D400B337F000A5
:102650005D8C954763D6A7009307B5FF3314F4004C
:10266000B70600FCFD16937774003376D40085C35B
:102670009377F4009145638CB700110693175600C9
:1026800063D707009307F009758E3387A7401314AB
:10269000660025809377F70F51B7135775011377AD
:1026A000F70F41119307170022C426C21314950097
:1026B00006C693F7E70F25809354F50185C7935716
:1026C0003400130707387604B2075207B183139515
:1026D000F401D98FC98FB240228522449244BE852D
:1026E0004101828005EB39C42285B128A94763C620
:1026F000A7042D47098F930755013357E40033147E
:10270000F4009317C70013079038098FB18313772C
:10271000F77F5DBF01CC13573400B7070800D98F8E
:10272000B2077604B1831307F07F79BF1307F07FF8
:10273000814759BF0147814741BF130755FF3317F1
:10274000E40001447DBFC167637CF5029307F00F8D
:102750001307000263EBA7009727000093874780C9
:10276000AA9788233305A74082802181971700000C
:102770009387077FAA97882361473305A740828004
:10278000B7070001636DF50061819717000093871B
:10279000277DAA97882321473305A740828041815E
:1027A000971700009387C77BAA9788234147330573
:1027B000A740828039713EDA2ED232D436D63AD84A
:1027C00042DC46DE9387018422CC804326CA06CEB3
:1027D000AA8409C41C4C99E3228515220C44541088
:1027E0002686228536C63127F2406244D2442161D2
:1027F000828035713ECBB707008093C7F7FF3ECE8E
:102800003EC8C1779387872032C536C73AC942CDC3
:1028100046CF3ECA938701842AC42ACC8843340118
:102820002E862C0086DE36C2FD2EA24723800700AE
:10283000F6500D618280AA87850703C7F7FF6DFFF9
:102840003385A7407D158280411122C406C62A84A3
:102850004EA572A523200500232205002324050090
:102860002322050623280500232A0500232C050022
:10287000214681451305C505EFD09F9E971700009F
:10288000938767CD5CD0971700009387A7CF1CD4A0
:1028900097170000938787D35CD49717000093871E
:1028A000E7D500D01CD8B240224441018280971560
:1028B000000093852509A9A2411126C213068006AE
:1028C0009384F5FFB384C4024AC02E8922C406C68D
:1028D00093854407592A2A8401CD23200500232209
:1028E0002501310508C4138684068145EFD05F9722
:1028F0002285B240224492440249410182801C4D0B
:10290000ADE3411106C622C497070000938767FA1A
:102910001CD5938741849C43232405042326050466
:10292000232805046314F50085471CCD2A841D283F
:1029300048C02285052808C422852D2048C4484067
:1029400001469145113708440546A545F53D4844E3
:102950000946C945D53D85471CCCB24022444101BA
:102960008280828041119387418426C284434AC079
:1029700006C69C4C22C42A8999E32685493793844C
:1029800084048044DC40FD1763D607009C40B9CF27
:102990008440C5BF0317C40039E7C17785072322E8
:1029A00004062320040023220400232404005CC422
:1029B00023280400232A0400232C040021468145F7
:1029C0001305C405EFD0DF89232A0402232C040257
:1029D00023240404232604042285B2402244924482
:1029E0000249410182801304840671BF91454A85E2
:1029F000E13588C051FDB1472320F9000144E9BF0A
:102A0000797122D44AD052CC56CA5AC85EC606D66C
:102A100026D24ECE2A8AAE8A130485040149054B7C
:102A2000FD5B09ECB25022544A8592540259F24996
:102A3000624AD24A424BB24B4561828004448329A8
:102A40004400FD1963D409000040E1BFDE24637B2C
:102A5000FB008397E40063877701A6855285829AFD
:102A60003369A90093848406E9BF011126CA9384BF
:102A70003500F19806CE22CC4AC84EC6A104B14713
:102A800063F5F404B14463E4B4042A89EF10C0137D
:102A90009387818998433A8429E49387C1899C4329
:102AA00099E781454A85EF00302823AEA188A685A5
:102AB0004A85EF007027FD5963193507B147232078
:102AC000F9004A85EF10601029A0E3DE04FAB1474F
:102AD0001CC10145F2406244D2444249B2490561F9
:102AE00082801C40858F63CF0702AD4663F6F600F7
:102AF0001CC03E9404C031A05C406313870223AC29
:102B0000F1884A85EF10600C1305B4009307440068
:102B100061993307F5405DDF3A94898F1CC05DBF32
:102B20005CC3C5B72287404085BF13043500719848
:102B3000E30285FCB305A4404A85EF00F01EE31BC9
:102B400035FBADBF01114AC803A9850022CC52C490
:102B50005AC006CE26CA4EC656C22E84328B368A3C
:102B600063E82609DE2513F7074849C304408C496A
:102B70005848AA8AB389B4408D44B384E402094713
:102B8000B3C4E402138716004E9763F3E400BA84DB
:102B900093F70740B5CFA6855685C13D2A891DE12B
:102BA000B14723A0FA005E247D5593E707045EA495
:102BB000F2406244D2444249B249224A924A024B0C
:102BC000056182800C484E86EF0090705E2493F77A
:102BD000F7B793E707085EA42328240144C84E9959
:102BE000B38434412320240104C4528963732A012D
:102BF000528908404A86DA85EF00B0781C440145C6
:102C0000B38727411CC41C403E99232024014DB7A3
:102C100026865685EF10C0052A895DFD0C4856852D
:102C2000EF00D07AB5BFDE25717126D34AD14ECFE1
:102C300006D722D552CD56CB5AC95EC762C566C3E8
:102C400093F70708AA892E89B284B1C39C49A1E3EE
:102C50009305000436C6113D2320A9002328A900AE
:102C6000B24615E1B14723A0F9007D55BA502A5468
:102C70009A540A59FA496A4ADA4A4A4BBA4B2A4CD8
:102C80009A4C4D61828093070004232AF900930730
:102C90000002A30CF1029307000302DA230DF102F4
:102CA00036CE930B5002971A0000938A6A41054C66
:102CB000294B26841C2099C363987709B30C944050
:102CC000638D0C00E6862686CA854E85A53DFD5798
:102CD000630BF518D256E69636DA1C206385071882
:102CE000FD579304140002D002D63ED202D4A301B1
:102CF000010682DC8C2015465685EF00F05B1384BC
:102D00001400825721E513F7070109C713070002D2
:102D1000A301E10613F7870009C71307B002A30157
:102D2000E10694201307A002638AE602B2572684C4
:102D300081462546182093051400130707FD63728A
:102D4000E6068DC63ED61DA00504ADB73305554138
:102D50003315AC00C98F3ED0A28469BF7247930679
:102D60004700184336CE634707023AD61820930728
:102D7000E002631DF70418309307A002631BF702FB
:102D8000F2470904138747009C433ACE63C1070208
:102D90003ED22DA83307E04093E727003AD63ED035
:102DA000F1B7B387670385462E84BA9761B7FD579D
:102DB000C5B7050402D281468147254618209305F0
:102DC0001400130707FD6376E606F9F20C200D46A2
:102DD000171500001305452FEF00104E11CD971762
:102DE00000009387672E1D8D93070004B397A700FB
:102DF000025505045D8D2AD00C20194617150000D8
:102E00001305C52C93041400230CB102EF00D04A23
:102E100025C597D7FFFF9387E71E95E70257F2472F
:102E20001377071009CF91073ECED257D2973EDADB
:102E300049B5B387670385462E84BA9741B79D0786
:102E4000E19BA107D5B77808970600009386C6CF07
:102E50004A860C104E8597000000E7000000FD57E1
:102E60002A8AE314F5FC8357C9007D5593F70704BC
:102E7000E39E07DE5255DDBB780897060000938677
:102E8000A6CC4A860C104E850121D1BF1C46FD17E9
:102E90001CC663D90700184E63C5E700A9476393B2
:102EA000F500B1AF1C422E851387170018C28CA302
:102EB0008280011122CC26CA4AC84EC652C406CE10
:102EC0002A89AE893284B304D6007D5A63149400F3
:102ED000014501A80C204E864A854D3F0504E317A5
:102EE00045FFF2406244D2444249B249224A056158
:102EF0008280357122CD26CB4AC94EC706CF52C536
:102F000056C35AC1DEDEE2DCE6DAAA89AE84328933
:102F1000368409C51C4D99E3EFF07F9E971700009A
:102F2000938707166398F40C83A44900DE24A18BD1
:102F3000E5C79C48F5C393070002A304F102930779
:102F4000000302D22305F10222C6930B5002971A06
:102F50000000938AEA16054C294B4A841C2099C329
:102F6000639E770DB30C2441638D0C00E6864A8680
:102F7000A6854E853D3FFD576301F51E9256E696A8
:102F800036D21C20638B071CFD571309140002C89E
:102F900002CE3ECA02CCA309010482D483450900B3
:102FA00015465685EF00503113041900C24749E910
:102FB00013F7070109C713070002A309E10413F778
:102FC000870009C71307B002A309E104834609007B
:102FD0001307A002638EE606F2474A84814625461F
:102FE000182093051400130707FD6376E60AADCA9F
:102FF0003ECEBDA0971700009387870A6395F40023
:1030000083A4890025B79717000093876705E39F7E
:10301000F4F083A4C90019BFA6854E85F92501DD0A
:103020007D55FA406A44DA444A49BA492A4A9A4ADA
:103030000A4BF65B665CD65C0D618280050439BF85
:10304000330555413315AC00C98F3EC82289B9B745
:10305000324793064700184336C6634707023ACE05
:1030600018209307E002631DF70418309307A002AD
:10307000631BF702B2470904138747009C433AC613
:1030800063C107023ECA2DA83307E04093E727003B
:103090003ACE3EC8F1B7B387670385462E84BA9708
:1030A00081B7FD57C5B7050402CA81468147254649
:1030B000182093051400130707FD6376E606F9F25E
:1030C0000C200D461715000013050500EF00D01E5B
:1030D00011CD97170000938727FF1D8D93070004DC
:1030E000B397A700424505045D8D2AC80C201946F8
:1030F00017150000130585FD130914002304B10200
:10310000EF00901B35C197D7FFFF9387A7EF95E797
:103110004247B2471377071009CF91073EC692572F
:10312000D2973ED21DBDB387670385462E84BA97DA
:1031300041B79D07E19BA107D5B77800970600002E
:10314000938666D726860C084E8597000000E70018
:103150000000FD572A8AE314F5FCDE2493F70704E8
:10316000E39007EC125575BD780097060000938632
:1031700086D426860C084E85012AE1BF797156CA8D
:103180009C49BA8A984522D426D24ECE52CC06D635
:103190004AD05AC85EC6AA892E84B284368A63D3BE
:1031A000E700BA879CC00347340419C385079CC055
:1031B0001C4093F7070281C79C4089079CC00329E4
:1031C000040013796900631A0900130B9401FD5B75
:1031D0005C449840998F634CF9041C408346340446
:1031E00093F70702B336D000A5EB13063404D2855B
:1031F0004E85829AFD576303F5041C4011469840A2
:10320000998B544481446397C700B384E64063D3E9
:10321000040081441C4418486354F700998FBE94FD
:10322000014969047D5B63982405014509A8854629
:103230005A86D2854E85829A631E75017D55B2509D
:10324000225492540259F249624AD24A424BB24B3A
:10325000456182800509ADBF3307D4001306000322
:10326000A301C7040347540493871600A297890655
:10327000A381E7049DBF85462286D2854E85829A2A
:10328000E30E65FB050945B7797122D426D24AD0F1
:103290004ECE06D652CC56CA5AC8B689942D93073C
:1032A00090063289AA842E8413863504638DF60233
:1032B00063E2D706930780056385F61863EDD700B0
:1032C000638D062093073004638EF60A930A240464
:1032D0002301D404C9A0930730066385F60A930737
:1032E0004006E395F6FE1C40084393F60708930555
:1032F0004500C5C61C410CC363D807001307D002A4
:10330000B307F040A301E40497160000938686DC1F
:10331000294765A8930700076381F61663E5D7027E
:103320009307E0066388F6189307F006E390F6FA31
:103330000C401C4313F80508138547006307080673
:1033400008C39C4385A893075007E383F6FE9307C1
:1033500080076388F61293073007E399F6F61C435B
:10336000D04181459386470014C383AA0700568540
:10337000A12701C53305554148C05C401CC8A301C5
:10338000040461A81C43930A2404938647009C43C9
:1033900014C32301F4048547D5B793F607041C41F1
:1033A0000CC3B9DAC207C18781BF93F5050408C30E
:1033B000C9D99E231307F0066386E60E9716000010
:1033C000938646D12947A30104044C400CC463C52D
:1033D000050008406D9908C099E3B28A89CDB28A88
:1033E000B3F5E702FD1AB6958C212380BA00B3D558
:1033F000E70263FFE70AA147631EF7001C40858BC5
:1034000091CB58401C4863C7E70093070003A38F84
:10341000FAFEFD1A3306564110C84E87CA86700060
:10342000A2852685A13B7D5A631D450B7D55B25073
:10343000225492540259F249624AD24A424B45619F
:103440008280A382D504971600009386A6C80C40FC
:10345000084313F805081C411105630D080208C351
:1034600013F7150001C793E505020CC04147A1FF02
:103470000C4093F5F5FD0CC0B9B79C4193E70702EA
:103480009CC193078007A302F4049716000093865B
:10349000A6C575BF13F8050408C3E30308FCC207FB
:1034A000C1837DBF971600009386C6C2214721BF06
:1034B000AE873DB794411C43CC4913F806081385E9
:1034C00047006306080008C39C438CC339A008C3A7
:1034D00093F606049C43F5DA8EA323280400B28AEF
:1034E0002DBF14485686CA8526858299E30045F586
:1034F0001C40898B8DE7B2474844E35AF5F23E857C
:103500003DB785465686CA8526858299E30065F3D0
:10351000050A5C443247998FE345FAFEE9BF014A48
:10352000930A94017D5BF5B7411122C42A842E854C
:1035300023A801BE06C6EFE04FC4FD576317F50090
:10354000938701BF9C4391C31CC0B24022444101F8
:103550008280411122C42E848395E50006C6EF00C7
:103560004076634905007C48AA977CC8B240224453
:10357000410182805E247D777D17F98F5EA4FDB7BF
:10358000DE25011122CC26CA4AC84EC606CE93F7C4
:103590000710AA842E843289B68991C78395E500E5
:1035A0008946014609215E247D777D17F98F5EA447
:1035B0008315E4006244F240CE864A86B24942490D
:1035C0002685D2440561DDA8411122C42E8483954D
:1035D000E50006C6C92EFD575A24631AF500FD778B
:1035E000FD17F98F5EA4B2402244410182808567B5
:1035F000D98F5EA468C8C5BF8395E500F5A2011107
:1036000022CC26CA4AC806CE4EC6AA842E89328447
:1036100009C51C4D99E3EFF08FAE97170000938713
:1036200027A66317F406C0401C4C1CC45E24A18B63
:10363000C1C31C48B5CF1C4808409379F90F1379D2
:10364000F90F1D8D5C486346F500A2852685CD2CBB
:1036500025E51C440505FD171CC41C4013871700F5
:1036600018C0238037015C486388A7005E24858BDF
:1036700081CBA9476316F900A2852685D1240DEDDB
:10368000F24062444A85D2444249B249056182808F
:10369000971700009387C7A06314F400804469B7AC
:1036A000971700009387C79BE310F4F8C044ADBFA1
:1036B000A28526851D2841D17D59D9B7411122C443
:1036C0002A842E85B285368623A801BE06C6EFE081
:1036D0002FA7FD576317F500938701BF9C4391C344
:1036E0001CC0B24022444101828041119387018471
:1036F00026C2844322C44AC006C62A892E8491C4A5
:103700009C4C81E72685EFF08F9F971700009387E9
:103710002797631BF402C0400317C40093170701E7
:10372000C18393F68700ADEA93F6070195EEA547AE
:103730002320F900136707045AA47D55B2402244A0
:103740009244024941018280971700009387479570
:103750006314F4008044C9B797170000938747901B
:10376000E31CF4FAC0444DBF918B9DC34C5889C9EA
:10377000930744046384F5004A858929232A0402B7
:103780005E242322040093F7B7FD5EA41C481CC0EE
:103790005E2493E787005EA41C4899EB5E24130720
:1037A000002093F707286385E700A2854A85AD2CA2
:1037B0005E2413F717001DC35C4823240400B307DD
:1037C000F0401CCC1C480145B5FB8317C40013F71F
:1037D00007082DD793E707045EA485B7898B0147B7
:1037E00091E3584818C4F9BF411122C42A842E8598
:1037F00023A801BE06C6B92BFD576317F5009387B2
:1038000001BF9C4391C31CC0B2402244410182804D
:10381000DE25011122CC26CA06CE4AC84EC613F7B1
:103820008700AA842E8479EBD841634DE000B8412B
:10383000634AE0000145F2406244D2444249B24941
:103840000561828058547DD703A9040093963701FF
:1038500023A0040063DB060670485E24918B99C7A1
:103860005C401D8E5C5899C33C401D8E5C540C50CE
:10387000814626858297FD575A24631DF5009440A2
:10388000F54763E8D706B70740208507B3D7D700C9
:10389000858BA5C31C48232204001CC09317370145
:1038A00063D80700FD576314F5009C4091E368C896
:1038B0004C5823A02401BDDD930744046384F50024
:1038C00026852926232A0402B5B70C5001468546D1
:1038D00026850297FD572A86E311F5F89C40B5DF4F
:1038E00075476385E70059476393E70423A02401E4
:1038F00091B7136707045AA47D5535BF83A9050105
:10390000E38A09F203A905008D8B23A03501330951
:103910003941014791E3D84918C4E35D20F11C54B3
:103920000C50CA864E86268582976347A0005E2487
:1039300093E707045EA4C9B7AA993309A940F1BF68
:103940009C49A5C3011122CC06CE2A8419C51C4D61
:1039500089E72EC6EFE0BFFAB245970700009387CC
:103960002772639BF5004C408397C50095C722855D
:103970006244F240056169BD970700009387477272
:103980006394F5000C44CDB7970700009387476D0B
:10399000E39CF5FC4C44C9BFF2406244014505611B
:1039A000828001458280411122C42A842E85B285FD
:1039B000368623A801BE06C6C126FD576317F5004B
:1039C000938701BF9C4391C31CC0B2402244410174
:1039D00082801971A6DAAE848395E500A2DC86DECA
:1039E000328463DB0500DE2423A0060093F707087A
:1039F0009DE39307004015A0300836C6CD2CB24693
:103A0000E34305FE7247BD67F98F7977BA9793B79D
:103A100017009CC2F9BF930700041CC0F6506654FF
:103A2000D654014509618280DE25011122CC06CEE3
:103A300026CA4AC8898B2E8489CF930774041CC078
:103A40001CC885475CC8F2406244D24442490561C3
:103A5000828074003000AA84AD3FA2452A89268561
:103A6000EFF0AF8019E98317C40013F7072061FF57
:103A7000F19B93E727005EA4C9B797F7FFFF9387F1
:103A800047E39CD45E2408C008C893E707085EA4F7
:103A9000A2475CC8B24799CB8315E4002685AD2CBC
:103AA00011C55E24F19B93E717005EA45E24336981
:103AB000F9002316240141BF93F5F50F2A966314EC
:103AC000C500014582801C21E38EB7FE0505C5BFF8
:103AD000B3C7A5008D8B3307C50081E78D4763ED24
:103AE000C700AA87637EE508942185078505A38F13
:103AF000D7FEE3EBE7FE828093763500AA8789CA7A
:103B0000942185078505A38FD7FE93F63700C5BF9F
:103B10009376C7FF138606FE63F0C70683A30500EE
:103B200083A2450083AF850003AFC50083AE0501C6
:103B300003AE450103A3850183A8C5019385450212
:103B400023A0770003A8C5FF23A2570023A4F701F1
:103B500023A6E70123A8D70123AAC70123AC670046
:103B600023AE17019387470223AE07FF75B7904135
:103B70009107910523AEC7FEE3EBD7FEE3E6E7F638
:103B8000828063F1A504B386C500637DD5029345A9
:103B9000F6FF8147FD176393F50082803387F600B7
:103BA000034807003387C7002A9723000701DDB7C2
:103BB0003387F50014233307F500850714A3E319B1
:103BC000F6FE82808147E5BF82808280CDC183A7D7
:103BD000C5FF411122C406C626C21384C5FF63D3A4
:103BE00007003E94AA84CD37938781899C4399EB43
:103BF0002322040023AC81882244B24026859244CB
:103C00004101E1B7637EF40014403307D4006396AA
:103C1000E7009843DC43369718C05CC0E1BFBA8721
:103C2000D84319C3E37DE4FE94433386D700631F72
:103C300086001040B29694C33386D700E31EC7FABD
:103C400010435843B29694C3D8C37DB76375C4007C
:103C5000B1479CC055B71040B306C4006316D700E7
:103C600014435843B29614C058C0C0C371B7828081
:103C700081E5B2856FE07FDF011122CC06CE26CA36
:103C80004AC84EC6328419EA91370149F24062446B
:103C90004A85D2444249B24905618280AE84AA89EC
:103CA00045202689E37485FEA2854E85EFE0FFDB83
:103CB0002A8969DDA6852286213DA6854E8539376C
:103CC000F1B7411122C42A842E85B285368623A8F5
:103CD00001BE06C64528FD576317F500938701BF4F
:103CE0009C4391C31CC0B2402244410182804111D7
:103CF00022C42A842E85B28523A801BE06C68D2043
:103D0000FD576317F500938701BF9C4391C31CC007
:103D1000B240224441018280411122C42A842E856E
:103D200023A801BE06C69920FD576317F5009387A7
:103D300001BF9C4391C31CC0B24022444101828018
:103D400083A7C5FF1385C7FF63D50700AA959C41CC
:103D50003E9582809307800523A8F1BE7D55828021
:103D60009307800523A8F1BE7D55828093078005C7
:103D700023A8F1BE014582809307800523A8F1BEE8
:103D80007D5582809307800523A8F1BE7D558280F2
:103D900053797374656D436C6B3A25640D0A0000AA
:103DA0005278427566666572323A25730D0A0000D4
:103DB00043616C696272617474696F6E56616C758F
:103DC000653A25640A00000041542B5A495043418A
:103DD0004C4C3D310000000041542B5A4D514E4592
:103DE000573D312C3138332E3233302E34302E3390
:103DF000392C363030322C31323030302C323034B5
:103E0000382C320041542B5A4D51434F4E3D312CEA
:103E1000342C313032383634353231362C31303082
:103E2000302C312C302C3438383632352C736865D0
:103E30006E6774616F00000025322E316625322EC8
:103E4000316625322E316625322E316625312E32ED
:103E5000660000007B22686569676874223A222543
:103E600073227D00257800002573257325730000DB
:103E700041542B5A4D515055423D312C2464702CE5
:103E8000312C302C302C25642C25730025730D0A21
:103E900000000000253032580000000028E0FFFF3D
:103EA0004EDFFFFF22E0FFFF56DFFFFF22E0FFFFB4
:103EB0001CDFFFFF22E0FFFF56DFFFFF4EDFFFFFAB
:103EC0004EDFFFFF1CDFFFFF56DFFFFF5CDFFFFF62
:103ED0005CDFFFFF5CDFFFFF1CDFFFFF0EDFFFFF8C
:103EE0000EDFFFFFE2DFFFFFBEE0FFFFE2DFFFFFCD
:103EF000DCDEFFFFE2DFFFFFBEE0FFFF0EDFFFFFC4
:103F00000EDFFFFFDCDEFFFFBEE0FFFF1CDFFFFF79
:103F10001CDFFFFF1CDFFFFFDCDEFFFF20E2FFFFF7
:103F200072E1FFFF72E1FFFF70E1FFFF76E1FFFF4B
:103F300076E1FFFF46E1FFFF70E1FFFF76E1FFFF63
:103F400046E1FFFF76E1FFFF70E1FFFF0EE2FFFFBA
:103F50000EE2FFFF0EE2FFFF46E1FFFF000102025B
:103F60000303030304040404040404040505050511
:103F700005050505050505050505050506060606ED
:103F800006060606060606060606060606060606D1
:103F900006060606060606060606060607070707BD
:103FA00007070707070707070707070707070707A1
:103FB0000707070707070707070707070707070791
:103FC0000707070707070707070707070707070781
:103FD000070707070707070707070707080808086D
:103FE0000808080808080808080808080808080851
:103FF0000808080808080808080808080808080841
:104000000808080808080808080808080808080830
:104010000808080808080808080808080808080820
:104020000808080808080808080808080808080810
:104030000808080808080808080808080808080800
:1040400008080808080808080808080808080808F0
:104050000808080808080808080808080000000000
:104060000000000000000000000000000000000050
:104070000000000000000000000000000000000040
:104080000000000000000000000000000000000030
:104090000000000000000000000000000000000020
:1040A0000000000000000000000000000000000010
:1040B000000000000000000000000000232D302B55
:1040C00020000000686C4C006566674546470000AC
:1040D000303132333435363738394142434445463E
:1040E0000000000030313233343536373839616200
:0840F000636465660000000036
:1040F80023427566666572322053656E6420667267
:104108006F6D2055534152543320746F20555341DD
:10411800525432207573696E6720444D4121000066
:1041280030333030000000000000000000000000C4
:104138000000000000000000010203040102030463
:1041480006070809000000007C4000009C400000B1
:104158005C400000000000000000000000000000BB
:104168000000000000000000000000000000000047
:104178000000000000000000000000000000000037
:104188000000000000000000000000000000000027
:104198000000000000000000000000000000000017
:1041A8000000000000000000D42D00002E270000B1
:1041B800F52D0000452600009B2E0000FA26000081
:1041C80000008040000038421C010020200100202F
:1041D80024010020280100203801002000A24A0400
:1041E80002040608AC0400205400002054000020FB
:00000001FF
